{
  "_format": "hh-sol-artifact-1",
  "contractName": "Voting",
  "sourceName": "contracts/Voting.sol",
  "abi": [
    {
      "inputs": [],
      "stateMutability": "nonpayable",
      "type": "constructor"
    },
    {
      "inputs": [
        {
          "internalType": "string",
          "name": "_name",
          "type": "string"
        }
      ],
      "name": "addCandidate",
      "outputs": [],
      "stateMutability": "nonpayable",
      "type": "function"
    },
    {
      "inputs": [
        {
          "internalType": "uint256",
          "name": "",
          "type": "uint256"
        }
      ],
      "name": "candidates",
      "outputs": [
        {
          "internalType": "uint256",
          "name": "id",
          "type": "uint256"
        },
        {
          "internalType": "string",
          "name": "name",
          "type": "string"
        },
        {
          "internalType": "uint256",
          "name": "numberOfVotes",
          "type": "uint256"
        }
      ],
      "stateMutability": "view",
      "type": "function"
    },
    {
      "inputs": [],
      "name": "checkElectionPeriod",
      "outputs": [
        {
          "internalType": "bool",
          "name": "",
          "type": "bool"
        }
      ],
      "stateMutability": "nonpayable",
      "type": "function"
    },
    {
      "inputs": [],
      "name": "electionStarted",
      "outputs": [
        {
          "internalType": "bool",
          "name": "",
          "type": "bool"
        }
      ],
      "stateMutability": "view",
      "type": "function"
    },
    {
      "inputs": [],
      "name": "electionTimer",
      "outputs": [
        {
          "internalType": "uint256",
          "name": "",
          "type": "uint256"
        }
      ],
      "stateMutability": "view",
      "type": "function"
    },
    {
      "inputs": [
        {
          "internalType": "uint256",
          "name": "",
          "type": "uint256"
        }
      ],
      "name": "listOfVoters",
      "outputs": [
        {
          "internalType": "address",
          "name": "",
          "type": "address"
        }
      ],
      "stateMutability": "view",
      "type": "function"
    },
    {
      "inputs": [],
      "name": "owner",
      "outputs": [
        {
          "internalType": "address",
          "name": "",
          "type": "address"
        }
      ],
      "stateMutability": "view",
      "type": "function"
    },
    {
      "inputs": [],
      "name": "resetAllVoterStatus",
      "outputs": [],
      "stateMutability": "nonpayable",
      "type": "function"
    },
    {
      "inputs": [],
      "name": "retrieveVotes",
      "outputs": [
        {
          "components": [
            {
              "internalType": "uint256",
              "name": "id",
              "type": "uint256"
            },
            {
              "internalType": "string",
              "name": "name",
              "type": "string"
            },
            {
              "internalType": "uint256",
              "name": "numberOfVotes",
              "type": "uint256"
            }
          ],
          "internalType": "struct Voting.Candidate[]",
          "name": "",
          "type": "tuple[]"
        }
      ],
      "stateMutability": "view",
      "type": "function"
    },
    {
      "inputs": [
        {
          "internalType": "string[]",
          "name": "_candidates",
          "type": "string[]"
        },
        {
          "internalType": "uint256",
          "name": "_votingDuration",
          "type": "uint256"
        }
      ],
      "name": "startElection",
      "outputs": [],
      "stateMutability": "nonpayable",
      "type": "function"
    },
    {
      "inputs": [
        {
          "internalType": "uint256",
          "name": "_id",
          "type": "uint256"
        }
      ],
      "name": "voteTo",
      "outputs": [],
      "stateMutability": "nonpayable",
      "type": "function"
    },
    {
      "inputs": [
        {
          "internalType": "address",
          "name": "_voter",
          "type": "address"
        }
      ],
      "name": "voterStatus",
      "outputs": [
        {
          "internalType": "bool",
          "name": "",
          "type": "bool"
        }
      ],
      "stateMutability": "view",
      "type": "function"
    },
    {
      "inputs": [],
      "name": "votingEnd",
      "outputs": [
        {
          "internalType": "uint256",
          "name": "",
          "type": "uint256"
        }
      ],
      "stateMutability": "view",
      "type": "function"
    },
    {
      "inputs": [],
      "name": "votingStart",
      "outputs": [
        {
          "internalType": "uint256",
          "name": "",
          "type": "uint256"
        }
      ],
      "stateMutability": "view",
      "type": "function"
    }
  ],
  "bytecode": "0x608060405234801561001057600080fd5b5033600160006101000a81548173ffffffffffffffffffffffffffffffffffffffff021916908373ffffffffffffffffffffffffffffffffffffffff160217905550611b1e806100616000396000f3fe608060405234801561001057600080fd5b50600436106100ea5760003560e01c8063576cc4f21161008c5780639a53cbea116100665780639a53cbea1461023b578063d4608b721461026b578063d4a6cac814610275578063d5346da114610293576100ea565b8063576cc4f2146101cf57806385a38635146101ff5780638da5cb5b1461021d576100ea565b80633477ee2e116100c85780633477ee2e146101475780633c9a4df3146101795780633d7b995c14610197578063462e91ec146101b3576100ea565b8063031e5004146100ef5780630b56a6811461010d578063101158af14610129575b600080fd5b6100f76102b1565b6040516101049190610f22565b60405180910390f35b6101276004803603810190610122919061119f565b6103b6565b005b610131610522565b60405161013e919061120a565b60405180910390f35b610161600480360381019061015c9190611225565b610528565b6040516101709392919061129c565b60405180910390f35b6101816105ea565b60405161018e919061120a565b60405180910390f35b6101b160048036038101906101ac9190611225565b610661565b005b6101cd60048036038101906101c891906112da565b610839565b005b6101e960048036038101906101e49190611381565b6109da565b6040516101f691906113c9565b60405180910390f35b610207610a7f565b604051610214919061120a565b60405180910390f35b610225610a85565b60405161023291906113f3565b60405180910390f35b61025560048036038101906102509190611225565b610aab565b60405161026291906113f3565b60405180910390f35b610273610aea565b005b61027d610c3e565b60405161028a91906113c9565b60405180910390f35b61029b610c7b565b6040516102a891906113c9565b60405180910390f35b60606000805480602002602001604051908101604052809291908181526020016000905b828210156103ad5783829060005260206000209060030201604051806060016040529081600082015481526020016001820180546103129061143d565b80601f016020809104026020016040519081016040528092919081815260200182805461033e9061143d565b801561038b5780601f106103605761010080835404028352916020019161038b565b820191906000526020600020905b81548152906001019060200180831161036e57829003601f168201915b50505050508152602001600282015481525050815260200190600101906102d5565b50505050905090565b600660009054906101000a900460ff1615610406576040517f08c379a00000000000000000000000000000000000000000000000000000000081526004016103fd906114ba565b60405180910390fd5b6000806104139190610c8e565b60005b82518167ffffffffffffffff1610156104dd57600060405180606001604052808367ffffffffffffffff168152602001858467ffffffffffffffff1681518110610463576104626114da565b5b60200260200101518152602001600081525090806001815401808255809150506001900390600052602060002090600302016000909190919091506000820151816000015560208201518160010190816104bd91906116b5565b5060408201518160020155505080806104d5906117ca565b915050610416565b506001600660006101000a81548160ff02191690831515021790555042600481905550603c8161050d91906117fa565b42610518919061183c565b6005819055505050565b60045481565b6000818154811061053857600080fd5b90600052602060002090600302016000915090508060000154908060010180546105619061143d565b80601f016020809104026020016040519081016040528092919081815260200182805461058d9061143d565b80156105da5780601f106105af576101008083540402835291602001916105da565b820191906000526020600020905b8154815290600101906020018083116105bd57829003601f168201915b5050505050908060020154905083565b6000600660009054906101000a900460ff1661063b576040517f08c379a0000000000000000000000000000000000000000000000000000000008152600401610632906118bc565b60405180910390fd5b600554421061064d576000905061065e565b4260055461065b91906118dc565b90505b90565b600660009054906101000a900460ff166106b0576040517f08c379a00000000000000000000000000000000000000000000000000000000081526004016106a7906118bc565b60405180910390fd5b6106b8610c3e565b6106f7576040517f08c379a00000000000000000000000000000000000000000000000000000000081526004016106ee9061195c565b60405180910390fd5b610700336109da565b15610740576040517f08c379a0000000000000000000000000000000000000000000000000000000008152600401610737906119ee565b60405180910390fd5b60008181548110610754576107536114da565b5b9060005260206000209060030201600201600081548092919061077690611a0e565b91905055506001600260003373ffffffffffffffffffffffffffffffffffffffff1673ffffffffffffffffffffffffffffffffffffffff16815260200190815260200160002060006101000a81548160ff0219169083151502179055506003339080600181540180825580915050600190039060005260206000200160009091909190916101000a81548173ffffffffffffffffffffffffffffffffffffffff021916908373ffffffffffffffffffffffffffffffffffffffff16021790555050565b600160009054906101000a900473ffffffffffffffffffffffffffffffffffffffff1673ffffffffffffffffffffffffffffffffffffffff163373ffffffffffffffffffffffffffffffffffffffff16146108c9576040517f08c379a00000000000000000000000000000000000000000000000000000000081526004016108c090611ac8565b60405180910390fd5b600660009054906101000a900460ff16610918576040517f08c379a000000000000000000000000000000000000000000000000000000000815260040161090f906118bc565b60405180910390fd5b610920610c3e565b61095f576040517f08c379a00000000000000000000000000000000000000000000000000000000081526004016109569061195c565b60405180910390fd5b600060405180606001604052806000805490508152602001838152602001600081525090806001815401808255809150506001900390600052602060002090600302016000909190919091506000820151816000015560208201518160010190816109ca91906116b5565b5060408201518160020155505050565b6000600660009054906101000a900460ff16610a2b576040517f08c379a0000000000000000000000000000000000000000000000000000000008152600401610a22906118bc565b60405180910390fd5b600260008373ffffffffffffffffffffffffffffffffffffffff1673ffffffffffffffffffffffffffffffffffffffff16815260200190815260200160002060009054906101000a900460ff169050919050565b60055481565b600160009054906101000a900473ffffffffffffffffffffffffffffffffffffffff1681565b60038181548110610abb57600080fd5b906000526020600020016000915054906101000a900473ffffffffffffffffffffffffffffffffffffffff1681565b600160009054906101000a900473ffffffffffffffffffffffffffffffffffffffff1673ffffffffffffffffffffffffffffffffffffffff163373ffffffffffffffffffffffffffffffffffffffff1614610b7a576040517f08c379a0000000000000000000000000000000000000000000000000000000008152600401610b7190611ac8565b60405180910390fd5b60005b600380549050811015610c2d5760006002600060038481548110610ba457610ba36114da565b5b9060005260206000200160009054906101000a900473ffffffffffffffffffffffffffffffffffffffff1673ffffffffffffffffffffffffffffffffffffffff1673ffffffffffffffffffffffffffffffffffffffff16815260200190815260200160002060006101000a81548160ff0219169083151502179055508080600101915050610b7d565b5060036000610c3c9190610cb2565b565b600080610c496105ea565b1115610c585760019050610c78565b6000600660006101000a81548160ff021916908315150217905550600090505b90565b600660009054906101000a900460ff1681565b5080546000825560030290600052602060002090810190610caf9190610cd3565b50565b5080546000825590600052602060002090810190610cd09190610d0a565b50565b5b80821115610d0657600080820160009055600182016000610cf59190610d27565b600282016000905550600301610cd4565b5090565b5b80821115610d23576000816000905550600101610d0b565b5090565b508054610d339061143d565b6000825580601f10610d455750610d64565b601f016020900490600052602060002090810190610d639190610d0a565b5b50565b600081519050919050565b600082825260208201905092915050565b6000819050602082019050919050565b6000819050919050565b610da681610d93565b82525050565b600081519050919050565b600082825260208201905092915050565b60005b83811015610de6578082015181840152602081019050610dcb565b60008484015250505050565b6000601f19601f8301169050919050565b6000610e0e82610dac565b610e188185610db7565b9350610e28818560208601610dc8565b610e3181610df2565b840191505092915050565b6000606083016000830151610e546000860182610d9d565b5060208301518482036020860152610e6c8282610e03565b9150506040830151610e816040860182610d9d565b508091505092915050565b6000610e988383610e3c565b905092915050565b6000602082019050919050565b6000610eb882610d67565b610ec28185610d72565b935083602082028501610ed485610d83565b8060005b85811015610f105784840389528151610ef18582610e8c565b9450610efc83610ea0565b925060208a01995050600181019050610ed8565b50829750879550505050505092915050565b60006020820190508181036000830152610f3c8184610ead565b905092915050565b6000604051905090565b600080fd5b600080fd5b600080fd5b7f4e487b7100000000000000000000000000000000000000000000000000000000600052604160045260246000fd5b610f9582610df2565b810181811067ffffffffffffffff82111715610fb457610fb3610f5d565b5b80604052505050565b6000610fc7610f44565b9050610fd38282610f8c565b919050565b600067ffffffffffffffff821115610ff357610ff2610f5d565b5b602082029050602081019050919050565b600080fd5b600080fd5b600067ffffffffffffffff82111561102957611028610f5d565b5b61103282610df2565b9050602081019050919050565b82818337600083830152505050565b600061106161105c8461100e565b610fbd565b90508281526020810184848401111561107d5761107c611009565b5b61108884828561103f565b509392505050565b600082601f8301126110a5576110a4610f58565b5b81356110b584826020860161104e565b91505092915050565b60006110d16110cc84610fd8565b610fbd565b905080838252602082019050602084028301858111156110f4576110f3611004565b5b835b8181101561113b57803567ffffffffffffffff81111561111957611118610f58565b5b8086016111268982611090565b855260208501945050506020810190506110f6565b5050509392505050565b600082601f83011261115a57611159610f58565b5b813561116a8482602086016110be565b91505092915050565b61117c81610d93565b811461118757600080fd5b50565b60008135905061119981611173565b92915050565b600080604083850312156111b6576111b5610f4e565b5b600083013567ffffffffffffffff8111156111d4576111d3610f53565b5b6111e085828601611145565b92505060206111f18582860161118a565b9150509250929050565b61120481610d93565b82525050565b600060208201905061121f60008301846111fb565b92915050565b60006020828403121561123b5761123a610f4e565b5b60006112498482850161118a565b91505092915050565b600082825260208201905092915050565b600061126e82610dac565b6112788185611252565b9350611288818560208601610dc8565b61129181610df2565b840191505092915050565b60006060820190506112b160008301866111fb565b81810360208301526112c38185611263565b90506112d260408301846111fb565b949350505050565b6000602082840312156112f0576112ef610f4e565b5b600082013567ffffffffffffffff81111561130e5761130d610f53565b5b61131a84828501611090565b91505092915050565b600073ffffffffffffffffffffffffffffffffffffffff82169050919050565b600061134e82611323565b9050919050565b61135e81611343565b811461136957600080fd5b50565b60008135905061137b81611355565b92915050565b60006020828403121561139757611396610f4e565b5b60006113a58482850161136c565b91505092915050565b60008115159050919050565b6113c3816113ae565b82525050565b60006020820190506113de60008301846113ba565b92915050565b6113ed81611343565b82525050565b600060208201905061140860008301846113e4565b92915050565b7f4e487b7100000000000000000000000000000000000000000000000000000000600052602260045260246000fd5b6000600282049050600182168061145557607f821691505b6020821081036114685761146761140e565b5b50919050565b7f456c656374696f6e2069732063757272656e746c79206f6e676f696e67000000600082015250565b60006114a4601d83611252565b91506114af8261146e565b602082019050919050565b600060208201905081810360008301526114d381611497565b9050919050565b7f4e487b7100000000000000000000000000000000000000000000000000000000600052603260045260246000fd5b60008190508160005260206000209050919050565b60006020601f8301049050919050565b600082821b905092915050565b60006008830261156b7fffffffffffffffffffffffffffffffffffffffffffffffffffffffffffffffff8261152e565b611575868361152e565b95508019841693508086168417925050509392505050565b6000819050919050565b60006115b26115ad6115a884610d93565b61158d565b610d93565b9050919050565b6000819050919050565b6115cc83611597565b6115e06115d8826115b9565b84845461153b565b825550505050565b600090565b6115f56115e8565b6116008184846115c3565b505050565b5b81811015611624576116196000826115ed565b600181019050611606565b5050565b601f8211156116695761163a81611509565b6116438461151e565b81016020851015611652578190505b61166661165e8561151e565b830182611605565b50505b505050565b600082821c905092915050565b600061168c6000198460080261166e565b1980831691505092915050565b60006116a5838361167b565b9150826002028217905092915050565b6116be82610dac565b67ffffffffffffffff8111156116d7576116d6610f5d565b5b6116e1825461143d565b6116ec828285611628565b600060209050601f83116001811461171f576000841561170d578287015190505b6117178582611699565b86555061177f565b601f19841661172d86611509565b60005b8281101561175557848901518255600182019150602085019450602081019050611730565b86831015611772578489015161176e601f89168261167b565b8355505b6001600288020188555050505b505050505050565b7f4e487b7100000000000000000000000000000000000000000000000000000000600052601160045260246000fd5b600067ffffffffffffffff82169050919050565b60006117d5826117b6565b915067ffffffffffffffff82036117ef576117ee611787565b5b600182019050919050565b600061180582610d93565b915061181083610d93565b925082820261181e81610d93565b9150828204841483151761183557611834611787565b5b5092915050565b600061184782610d93565b915061185283610d93565b925082820190508082111561186a57611869611787565b5b92915050565b7f4e6f20656c656374696f6e207965740000000000000000000000000000000000600082015250565b60006118a6600f83611252565b91506118b182611870565b602082019050919050565b600060208201905081810360008301526118d581611899565b9050919050565b60006118e782610d93565b91506118f283610d93565b925082820390508181111561190a57611909611787565b5b92915050565b7f456c656374696f6e20506572696f642068617320656e64656400000000000000600082015250565b6000611946601983611252565b915061195182611910565b602082019050919050565b6000602082019050818103600083015261197581611939565b9050919050565b7f596f7520616c726561647920766f7465642e20596f752063616e206f6e6c792060008201527f766f747465206f6e636500000000000000000000000000000000000000000000602082015250565b60006119d8602a83611252565b91506119e38261197c565b604082019050919050565b60006020820190508181036000830152611a07816119cb565b9050919050565b6000611a1982610d93565b91507fffffffffffffffffffffffffffffffffffffffffffffffffffffffffffffffff8203611a4b57611a4a611787565b5b600182019050919050565b7f596f7520617265206e6f7420617574686f72697a656420746f2073746172742060008201527f616e20656c656374696f6e000000000000000000000000000000000000000000602082015250565b6000611ab2602b83611252565b9150611abd82611a56565b604082019050919050565b60006020820190508181036000830152611ae181611aa5565b905091905056fea2646970667358221220809fc138acf9b24ef9eb64032e46c282fe8a0e42c0840a6c489d2df70d65627164736f6c63430008180033",
  "linkReferences": {},
  "deployedLinkReferences": {}
}